:020000040800F2
:10000000B8510020D5020008DD020008BD16000826
:10001000E1020008E3020008E50200080000000019
:10002000000000000000000000000000E7020008DF
:10003000E9020008000000006F020008D545000832
:100040003F550008EB3F0008214700082142000807
:10005000291200081D420008590D0008B50D0008BE
:10006000B70D0008B90D0008BB0D0008EF0200082D
:10007000EF020008EF020008EF020008EF0200089C
:10008000EF020008EF020008EF020008EF0200088C
:10009000EF020008EF020008EF020008BD0D0008A3
:1000A00023470008A14700089D470008254700088E
:1000B0004D4900084F4900085149000863170008DE
:1000C000611700086717000865170008E14200087B
:1000D000E3420008694F0008395100085D530008E9
:1000E0005D0D00081F420008EF020008000000003C
:1000F0000000000000000000000000000000000000
:10010000000000000000000053490008E54200081C
:10011000654F0008674F0008554900085749000817
:10012000750A0008770A0008790A0008EF0200083B
:10013000EF020008EF020008EF020008EF020008DB
:10014000EF020008EF020008EF020008EF020008CB
:1001500000F002F800F05AF80AA090E8000C82447F
:100160008344AAF10107DA4501D100F04FF8AFF25C
:10017000090EBAE80F0013F0010F18BFFB1A43F085
:1001800001031847F0690000106A00000A444FF0AC
:10019000000C10F8013B13F0070408BF10F8014BE6
:1001A0001D1108BF10F8015B641E05D010F8016B2B
:1001B000641E01F8016BF9D113F0080F1EBF10F88F
:1001C000014BAD1C0C1B09D16D1E58BF01F801CBB2
:1001D000FAD505E014F8016B01F8016B6D1EF9D535
:1001E0009142D6D37047000000230024002500264A
:1001F000103A28BF78C1FBD8520728BF30C148BF8A
:100200000B6070471FB51FBD10B510BD00F056F94B
:100210001146FFF7F7FF06F075F800F074F903B424
:10022000FFF7F2FF03BC05F091F90000EFF3108037
:1002300072B6704780F31088704724484FF0FF0172
:100240000170002080F309881D48012101702048B9
:100250004FF08051016062B6FEE71D484FF08051BB
:10026000016070471A484FF0805101607047EFF30A
:10027000098028B1203880E8F00F12490968086029
:1002800000B50A4880475DF804EB0B480B490A7833
:1002900002700C480C490A680260106890E8F00F80
:1002A000203080F309884EF0040E7047F3370008C1
:1002B0008D310008750300207703002078030020AB
:1002C00082030020880300209003002022ED00E03C
:1002D00004ED00E00948804709480047FEE7FEE7D3
:1002E000FEE7FEE7FEE7FEE7FEE7FEE7FEE7FEE7E6
:1002F00004480549054A064B70470000B54600080A
:1003000051010008B8450020B8510020B84900202C
:10031000B84900207047401ECAB210F8011F8A4237
:1003200002D00029F9D10020704730B503461D786E
:100330001DB10A4603E0AC4201D1181A30BD12F8D3
:10034000014B002CF7D15B1CF1E730B505460B469D
:100350002A4613F8014B12F8010B08B1A042F8D05D
:100360001CB1002802D06D1CF1E7284630BD40EAE0
:100370000103024630B59B0710D14FF0013400E075
:1003800008C208C91D1B9D4315EAC41FF8D013F00D
:10039000FF0102F8011B0DD01B0AF8E711F8013B21
:1003A000002B02F8013B05D011F8013B002B02F8AD
:1003B000013BF3D130BD10B5203AC0F00B80B1E85D
:1003C0001850203AA0E81850B1E81850A0E818508A
:1003D000BFF4F5AF5FEA027C24BFB1E81850A0E893
:1003E000185044BF18C918C0BDE810405FEA827CAD
:1003F00024BF51F8043B40F8043B08BF7047D207C4
:1004000028BF31F8023B48BF11F8012B28BF20F864
:10041000023B48BF00F8012B70474FF0000204294F
:10042000C0F0128010F0030C00F01B80CCF1040C23
:10043000BCF1020F18BF00F8012BA8BF20F8022B57
:10044000A1EB0C0100F00DB85FEAC17C24BF00F8FD
:10045000012B00F8012B48BF00F8012B70474FF02B
:10046000000200B5134694469646203922BFA0E804
:100470000C50A0E80C50B1F12001BFF4F7AF090710
:1004800028BFA0E80C5048BF0CC05DF804EB890001
:1004900028BF40F8042B08BF704748BF20F8022B44
:1004A00011F0804F18BF00F8012B7047704770475C
:1004B0007047704700487047544500207546FFF765
:1004C000F9FFAE4605006946534620F00700854611
:1004D00018B020B5FFF70CFFBDE820404FF0000634
:1004E0004FF000074FF000084FF0000B21F007011C
:1004F000AC46ACE8C009ACE8C009ACE8C009ACE85F
:10050000C0098D4670470446AFF300802046FFF7D0
:1005100086FE000086B0142225A16846FFF74BFF37
:1005200000BFFFF783FE044600BF01202549087085
:10053000002002F0CBFE24490860002002F0C6FE35
:100540002249086005A9042002F068FE20490860DD
:1005500005A9052002F062FE1E49086000F04EFF6A
:1005600000F084FE01F042FA01F004FA02F01AFDF4
:1005700001F0AEF804F0D8F802F05CFD4FF416502C
:1005800004F03CFD00F000FF4FF4165004F072FE42
:100590004021114804F0E3FE2046FFF74BFE06E041
:1005A0004FF4C87300221146104603F05BF9F7E7D9
:1005B000240F04010C4D50335F303036362E4D5031
:1005C00033770000C0000020240100202801002013
:1005D000180100201C0100200044004000BF06E07C
:1005E0004FF4EB7300221146104603F03BF9F7E796
:1005F00006E04FF4967300221146104603F032F9DC
:10060000F7E70000002450E006F024F927480078BE
:10061000002844D00020254908702548807820F023
:1006200004002349887023480188234805F024FCEE
:100630002249487396212248FFF7EFFE1F48407B6E
:1006400028B305F0DFF804461E4800780A2826DDA6
:100650001D480460B420B4FBF0F100FB114048B920
:10066000FFF7E4FD05461848006805F055F92846EF
:10067000FFF7E0FD04201549C87001200C4981F8FE
:10068000640013A10A486530FFF771FE07E00720F8
:100690000E49C8700FA106486530FFF768FED923E0
:1006A00000221146104603F0DDF8ADE70E040020ED
:1006B000A82B0020BC030020183D0020982B002010
:1006C000F24000200700002008010020EF02002077
:1006D000475053004C4F434C0000000000BF00BF88
:1006E000002400BF12E02748007801280ED18021A5
:1006F000254800F08AFF00F0B3FA8021224800F07C
:1007000086FF601CC4B200201E490870052CEADB7D
:10071000FFF78CFD054605F0B7FA05F08BF9284682
:10072000FFF788FD0120194908702AE001F06AF9F5
:1007300004F084FA1648007860B18021124800F075
:1007400064FF00F08DFA80210F4800F060FF002068
:100750000F4908700F48007801280CD180210A4801
:1007600000F053FF01F006F88021074800F04FFF2A
:100770000020084908705A2300221146104603F051
:1007800071F8D3E773010020001801403101002007
:1007900084010020480100201DE00F48007810B1BE
:1007A00000F05AFC11E00D48007810B100F06CFB2D
:1007B0000BE00948007840B90748007828B964235D
:1007C00000221146104603F04DF83C23002211464A
:1007D000104603F047F8E0E7CB010020CC010020F1
:1007E00000BF15E00B48007858B100F035FC002040
:1007F000084908706E2300221146104603F032F8B3
:1008000006E04FF4FF7300221146104603F02AF869
:10081000E8E70000490100201CB500BF00BF5EE012
:100820002F480078002848D12E4801682E480068DB
:1008300004F0D4FE012840D12A480068C0798DF820
:1008400000002848006880798DF80100254800687C
:1008500040798DF80200FFF7E9FC044603236A465D
:100860000021AE2005F0BAFC2046FFF7E3FC64202F
:1008700000F0D8F9FFF7DAFC044603236A460021AA
:10088000AE2005F071FC9DF8000016490968C8719A
:100890009DF801001349096888719DF8020011490B
:1008A000096848712046FFF7C5FC00200F49087011
:1008B00001200B4908700E4908700B4800688079C8
:1008C0000A2806D1084800684079052801D105F0BA
:1008D000DBF9822300221146104602F0C3FF9FE796
:1008E000E10000200C01002000000020C0000020DA
:1008F0002D040020F0B585B0074600241425FFF72D
:1009000095FC0646032000214FF48072414BCDE94F
:100910000132CDE903100A2003463F4A00903F48C8
:1009200002F04CFD032000214FF480723C4BCDE9D6
:100930000132CDE903100B2003463A4A00903A48B1
:1009400002F03CFD032000214FF48072374BCDE9CB
:100950000132CDE903100C200346354A009035489A
:1009600002F02CFD032000214FF48072324BCDE9C0
:100970000132CDE903100D200346304A0090304883
:1009800002F01CFD032000214FF480722D4BCDE9B5
:100990000132CDE903100E2003462B4A00902B486C
:1009A00002F00CFD032000214FF48072284BCDE9AA
:1009B0000132CDE903100F200346264A0090264855
:1009C00002F0FCFC032000214FF48072234BCDE9A0
:1009D0000132CDE9031010200346214A009021483E
:1009E00002F0ECFC032000214FF480721E4BCDE995
:1009F0000132CDE90310112003461C4A00901C4827
:100A000002F0DCFC3046FFF715FCFF2002F038FD59
:100A100005B0F0BD8C0A0020880E002015050008E6
:100A20008C0E002088120020DD0500088C120020AA
:100A300088160020F10500088C160020881A002076
:100A4000050600088C1A0020881E0020DD0600081C
:100A50008C1E002088220020990700088C2200208C
:100A600088260020E10700088C260020882A002024
:100A70001908000870477047704721B1026842F0BA
:100A80000102026004E002684FF6FE731A40026041
:100A90007047000001684FF6FE72114001600021AE
:100AA000016041608160C1604B49884208D14A4978
:100AB0000839496841F00F01474A083A51608AE015
:100AC00045491431884208D143490839496841F001
:100AD000F001414A083A51607DE03F49283188429F
:100AE00008D13D490839496841F470613A4A083AE9
:100AF000516070E038493C31884208D136490839A4
:100B0000496841F47041344A083A516063E032491F
:100B10005031884208D130490839496841F4702180
:100B20002D4A083A516056E02B496431884208D179
:100B300029490839496841F47001274A083A516047
:100B400049E025497831884208D123490839496864
:100B500041F07061204A083A51603CE01F498842E8
:100B600006D1011F096841F00F01021F116032E038
:100B70001A491431884208D11849091F096841F0FF
:100B8000F001164A121F116025E0144928318842ED
:100B900008D11249091F096841F470610F4A121FF8
:100BA000116018E00D493C31884208D10B49091FFA
:100BB000096841F47041094A121F11600BE00749AE
:100BC0005031884207D10549091F096841F4702155
:100BD000024A121F116070470800024008040240D8
:100BE0000146486880B2704710B50022026847F697
:100BF000F0739A430C6A8B6823430C6923434C6956
:100C000023438C692343CC6923434C6A23438C6A76
:100C100023431A430260CB6843600B6883604B68D0
:100C2000C36010BD01B508E0002000E0401CB0F535
:100C30007A7FFBD30099491E009100990029F3D1D6
:100C400008BD01B508E0002000E0401CB0F57A7F47
:100C5000FBD30099491E009100990029F3D108BDEA
:100C600010B53A48007800286FD13948007801283B
:100C700048D13848006840790A2190FBF1F201FB25
:100C80001200C4B22146802005F09AFE3148006867
:100C900040790A2190FBF1F0C4B22146812005F091
:100CA0008FFE2C48006880790A2190FBF1F201FB4D
:100CB0001200C4B22146832005F082FE2548006858
:100CC00080790A2190FBF1F0C4B22146842005F01E
:100CD00077FE20480068C0790A2190FBF1F201FB01
:100CE0001200C4B22146862005F06AFE1948006849
:100CF000C0790A2190FBF1F0C4B22146872005F0AB
:100D00005FFE17E00A21802005F05AFE0A218120AB
:100D100005F056FE0A21832005F052FE0A218420A8
:100D200005F04EFE0A21862005F04AFE0A218720A2
:100D300005F046FE0A21822005F042FE0A218520A8
:100D400005F03EFE0A20FFF76DFF10BDA80300204E
:100D500031010020000000207047000010B54FF462
:100D6000006000F033F828B14FF4006000F028F87C
:100D700005F0F2FB4FF4806000F028F898B1802174
:100D8000094800F042FC152005F050FC07490870A6
:100D90004FF4806000F014F88021034800F037FC25
:100DA00001200349087010BD00180140C600002052
:100DB000720100207047704770477047704700000D
:100DC00001490860704700001404014001460020FA
:100DD0000022074B1B6803EA0102054B14331B6812
:100DE0000B4202D00AB1012000E000207047000051
:100DF00000040140002123498279002A3AD00A46A2
:100E0000126803689A430B461A600A1D1268036849
:100E10009A430B1D1A60027911440A6803681A4349
:100E20000A60184A0832126803689A43154B08335F
:100E30001A601A1D126803689A43124B0C331A6029
:100E40004279102A0ED11A1F126803681A430D4BFB
:100E500008331A601A1D126803681A43094B0C33D1
:100E60001A600DE00749427911440A6803681A4381
:100E70000A6005E0027911440A6803689A430A602F
:100E8000704700000004014038B580216C4800F034
:100E9000BCFB4FF400716A4800F0B7FB142300223A
:100EA0001146104602F0DEFC4FF40071644800F079
:100EB000AEFBBDE06348007807280AD2DFE800F007
:100EC000040A1C2D3E50620001205E4908705E49F4
:100ED0000870ACE05D480088B0F5FA7F08DD0020BE
:100EE000594908705949088002205649087002E0A3
:100EF000142002F07FFC9AE04FF48051544800F037
:100F00007BFB30B9142002F075FC03204D490870BA
:100F100002E0142002F06EFC89E04FF480514C484E
:100F200000F06AFB18B904204649087005E0142057
:100F300002F060FC02204349087078E04FF48051D1
:100F4000434800F059FB012806D11E2002F052FC54
:100F500005203C49087002E0142002F04BFC66E0DA
:100F60004FF480513A4800F047FB012806D1062093
:100F700034490870142002F03DFC02E0142002F015
:100F800039FC54E04FF48051314800F035FB012822
:100F900049D180212A4800F038FB4FF400712848DD
:100FA00000F033FB0020274908702A48006800F051
:100FB00094FD28480068C0798DF800002548006835
:100FC00080798DF801002348006840798DF802008F
:100FD000FFF72CF9044603236A460021AE2005F0F2
:100FE000FDF82046FFF726F91E20FFF71BFEFFF74E
:100FF0001DF9044603236A460021AE2005F0B4F82B
:101000009DF8000013490968C8719DF80100114955
:10101000096888719DF802000E49096848712046E8
:10102000FFF708F905E005200649087000BF00BF7A
:1010300040E70A2300221146104602F013FC38BD97
:10104000000C0140EE000020440100204601002079
:10105000001001400C01002038B5002480216C48AC
:1010600000F0D3FA4FF40071694800F0CEFA14236F
:1010700000221146104602F0F5FB8021644800F082
:10108000C6FABDE06348007807280AD2DFE800F01E
:10109000040A1C2D3E50620001205E4908705E4922
:1010A0000870ACE05D480088B0F5FA7F08DD0020EC
:1010B000594908705949088002205649087002E0D1
:1010C000142002F097FB9AE04FF48051544800F04E
:1010D00093FA30B9142002F08DFB03204D490870BB
:1010E00002E0142002F086FB89E04FF480514C4866
:1010F00000F082FA18B904204649087005E014206F
:1011000002F078FB02204349087078E04FF48051E8
:10111000434800F071FA012806D11E2002F06AFB54
:1011200005203C49087002E0142002F063FB66E0F1
:101130004FF480513A4800F05FFA012806D10620AA
:1011400034490870142002F055FB02E0142002F02C
:1011500051FB54E04FF48051314800F04DFA012822
:1011600049D180212A4800F050FA4FF400712848F4
:1011700000F04BFA0020274908702A48006800F068
:1011800091FC28480068C0798DF800002548006867
:1011900080798DF801002348006840798DF80200BD
:1011A000FFF744F8054603236A460021AE2005F008
:1011B00015F82846FFF73EF81E20FFF733FDFFF72E
:1011C00035F8054603236A460021AE2004F0CCFF23
:1011D0009DF8000013490968C8719DF80100114984
:1011E000096888719DF802000E490968487128460F
:1011F000FFF720F805E005200649087000BF00BF92
:1012000040E70F2300221146104602F02BFB38BDA9
:10121000000C0140ED0000204401002046010020A8
:10122000001001400C0100207047000030B5002282
:101230008B071C0F0F2303FA04F20B4B8C1053F88F
:1012400024309343084C8D1044F8253023468C10ED
:1012500053F824308C07240F00FA04F42343024C83
:101260008D1044F8253030BD0800014010B504F061
:1012700063FF10BD2DE9F041024600250026002045
:1012800000230024002791F803C00CF00F0591F80B
:1012900003C01CF0100F03D091F802C04CEA050502
:1012A00091F800C0BCF1000F31D0146800202BE091
:1012B0004FF0010C0CFA00F3B1F800C00CEA030681
:1012C0009E4220D183004FF00F0C0CFA03F7BC4371
:1012D00005FA03FC4CEA040491F803C0BCF1280FA2
:1012E00006D14FF0010C0CFA00FCC2F814C00AE061
:1012F00091F803C0BCF1480F05D14FF0010C0CFA76
:1013000000FCC2F810C0401C0828D1D31460B1F80A
:1013100000C0BCF1FF0F34DD546800202EE000F166
:10132000080C4FF0010808FA0CF3B1F800C00CEA01
:1013300003069E4221D183004FF00F0C0CFA03F7F5
:10134000BC4305FA03FC4CEA040491F803C0BCF169
:10135000280F05D100F1080C08FA0CF8C2F8148027
:1013600091F803C0BCF1480F07D100F1080C4FF011
:10137000010808FA0CF8C2F81080401C0828CED3E7
:101380005460BDE8F08100001FB50121402002F04B
:101390005DFE4FF48060ADF8000002208DF8020081
:1013A00048208DF8030069461348FFF763FF4FF4A8
:1013B0008060029000208DF80C000C208DF80D004C
:1013C00001208DF80E0002A8FFF714FD0A21042069
:1013D000FFF72CFF4FF48060FFF7F2FC28208DF818
:1013E000040001208DF805008DF806008DF8070037
:1013F00001A801F05DFE1FBD0018014008B50121E4
:10140000582002F023FE4FF42070ADF800001020A9
:101410008DF8030001208DF8020069464F48FFF760
:1014200029FF4FF48050ADF8000048208DF80300EC
:1014300001208DF8020069464948FFF71BFF032091
:10144000ADF8000010208DF8030001208DF8020097
:1014500069464448FFF70EFF4FF40070ADF80000F6
:1014600048208DF8030001208DF8020069463C48B1
:10147000FFF700FF1020ADF800008DF803000120F9
:101480008DF8020069463748FFF7F4FE4020ADF8BA
:10149000000010208DF8030001208DF8020069463D
:1014A0002E48FFF7E7FE4FF40060ADF8000048203B
:1014B0008DF8030001208DF8020069462848FFF7E7
:1014C000D9FE0820ADF8000010208DF8030001209F
:1014D0008DF8020069462348FFF7CCFE4FF4807078
:1014E000ADF8000010208DF8030001208DF80200F7
:1014F00069461A48FFF7BEFE4FF48060ADF8000061
:1015000048208DF8030001208DF802006946144838
:10151000FFF7B0FE8021114800F077F84FF400711A
:101520000E4800F072F801210E4800F06EF802211A
:101530000C4800F06AF810210A4800F066F84021D3
:10154000064800F062F80821064800F05EF84FF403
:101550008071024800F059F808BD0000000C0140FD
:101560000010014000180140F0B50A460023002495
:101570000021002500F00046B6F1004F02D11D4EBB
:10158000F16901E01B4E7168C0F3034583B200F4BA
:101590004016B6F5401F08D121F07061154E7668EF
:1015A00026F07066134F7E6012E000F48016B6F5E8
:1015B000801F06D1032606FA05F4A14341F07061AD
:1015C00006E0460D360103FA06F6B14341F07061BC
:1015D00022B1460D360103FA06F6314300F000460B
:1015E000B6F1004F02D1034EF16101E0014E71608E
:1015F000F0BD0000000001400246002093680B424D
:1016000001D0012000E00020704741617047016176
:1016100070470000F0B58DB004463022264901A87D
:10162000FEF7C9FE6069451E642195FBF1F128466D
:10163000EA1705EB9272C1EBA2014FF4C87295FB59
:10164000F2F28F182169022917DD6069C11700EBDA
:1016500091718910B0EB81010FD16422616991FB16
:10166000F2F302FB131131B99200616991FBF2F3BD
:1016700002FB131109B9012100E000210E4640F2DE
:101680006D1005FB00712069401E01AA52F8200070
:101690000844E16808440644072096FBF0F100FB8B
:1016A0001160A0612069401E01A951F82000E16885
:1016B0000844E0610DB0F0BDD469000804E00348BF
:1016C0000088401C01490880F9E70000540100200F
:1016D00008B50121402002F0B9FC4FF42070ADF8AC
:1016E000000010208DF8030002208DF802006946EA
:1016F0001A48FFF7BFFD4FF48070ADF800001020CE
:101700008DF8030002208DF8020069461348FFF7A8
:10171000B1FD4FF48060ADF8000048208DF8030063
:1017200002208DF8020069460C48FFF7A3FD4FF434
:1017300000710A48FFF76BFF6420FFF773FA8021FE
:101740000648FFF762FFA42002F0CEFD6420FFF7F9
:1017500069FA80210148FFF75AFF08BD00180140CF
:1017600070477047704770477047704770477047C1
:101770007047704710B5744800780F287ED17348C1
:10178000007806287BD2DFE800F0033D417E82AB83
:101790006F48006840790A2190FBF1F201FB1200CA
:1017A0006C4908706A48006840790A2190FBF1F0A2
:1017B000684948706648006880790A2190FBF1F218
:1017C00001FB1200634988706148006880790A2132
:1017D00090FBF1F05F49C8705D480068C0790A214C
:1017E00090FBF1F201FB12005A4908715848006859
:1017F000C0790A2190FBF1F0564948710120564901
:10180000087075E002205449087071E05348006880
:1018100040790A2190FBF1F201FB12004D4908705A
:101820004E48006840790A2190FBF1F04949487020
:101830004A48006880790A2190FBF1F201FB12000E
:10184000444988704548006880790A2190FBF1F08E
:101850004049C87041480068C0790A2190FBF1F204
:1018600001FB12003B4908713C480068C0790A211D
:1018700090FBF1F037494871032001E044E033E088
:101880003549087034E004203349087030E03448AA
:101890000078401C33490870334800780A2190FBD7
:1018A000F1F201FB1200314908702F4800780A213B
:1018B00090FBF1F02D4948702D4800780A2190FBEB
:1018C000F1F201FB120029498870294800780A21A9
:1018D00090FBF1F02549C87005201F49087007E00A
:1018E00006201D49087003E000201B49087000BF56
:1018F00000BF16480078401C14490870084600785C
:10190000062801D10020087013480078082819D251
:10191000DFE800F00405080B0E11141712E000F0C8
:10192000DFFA0FE001F020F80CE001F04FF909E0D8
:1019300000F056FC06E000F05BF903E000F0EEF882
:1019400000E000BF00BF10BDC60000203D04002025
:1019500000000020B8000020A80300200C01002097
:10196000C100002034040020C30000203E030020FA
:10197000C200002008B501215D2002F067FB4FF492
:101980000040ADF8000010208DF8030003208DF812
:10199000020069461248FFF76DFC1020ADF8000008
:1019A0008DF8030003208DF8020069460D48FFF70B
:1019B00061FC0420ADF8000010208DF80300032026
:1019C0008DF8020069460848FFF754FC10210548CD
:1019D000FFF71BFE04210448FFF717FE08BD0000B7
:1019E00000080140000C01400018014010B5012121
:1019F0000D2002F02BFB01210148FFF7B5FD10BDC2
:101A00000002300010B522480078B0B321480078B9
:101A100021490978884217DC20480068C0791D49AF
:101A2000097888420BDB1D480068C0791A4909789B
:101A3000884204DC04211A48FFF7E9FD27E004216D
:101A40001748FFF7E2FD22E01248007812490978B2
:101A500088421CDD11480068C0790E490978884227
:101A600006DA0E480068C0790B490978884205DA21
:101A700004210B48FFF7CBFD09E004E004210848EE
:101A8000FFF7C3FD03E004210548FFF7BEFD10BDCD
:101A9000C1000020C2000020C30000200000002080
:101AA0000018014041791E31417141793C2913DB15
:101AB000002141718179491C817181793C290BDBBD
:101AC00000218171C179491CC171C1790C2291FB3E
:101AD000F2F302FB1311C171704741791E39417154
:101AE0004179E22918DB1E2141718179491E8171FA
:101AF0008179FF2910D13B218171C179491EC171C2
:101B0000C179FF2901D10B21C171C1790C2291FB4F
:101B1000F2F302FB1311C1717047000010B5304899
:101B20000068C0780A2190FBF1F201FB1200C4B2F8
:101B30002146802004F044FF29480068C0780A212B
:101B400090FBF1F0C4B22146812004F039FF244813
:101B5000006880780A2190FBF1F201FB1200C4B208
:101B60002146822004F02CFF1D48006880780A215D
:101B700090FBF1F0C4B22146832004F021FF184805
:101B8000006800880A2190FBF1F201FB1200C4B248
:101B90002146842004F014FF1148006800880A21BF
:101BA00090FBF1F0C4B22146852004F009FF0D211D
:101BB000CE2004F005FF0D21CF2004F001FF0948DD
:101BC0000078052803D0074800780D2804D10020AC
:101BD0000549087005490870FF200249087010BDCA
:101BE00000000020C6000020A80300203D040020C3
:101BF00008B5B2480078072812D1B1480078FC280F
:101C00000ADAAF4800788010AD49087008460078BD
:101C100040F0C0000870B0E03F20A9490870ACE077
:101C2000A64800780E2858D1A5480078CF280AD1B8
:101C3000A4480078401CA34908700846007803288F
:101C400001DB012008709E480078F32820D19E48CF
:101C5000C07802280FDA9C488078401C9A49887026
:101C6000084680780928D6DD002088700846C078AC
:101C7000401CC87081E094488078401C924988706C
:101C800008468078032878DD00208870C87074E0EA
:101C90008B480078FC2870D18B48407802280FDAF6
:101CA00089480078401C884908700846007809284F
:101CB00063DD0020087008464078401C48705CE0F6
:101CC00081480078401C8049087008460078032845
:101CD00053DD0020087048704FE0784800780628EF
:101CE0004BD177480078CF2810D176480078401E35
:101CF0007449087008460078012803DB084600781C
:101D000002283ADD02206F49087036E06C480078FE
:101D1000F32817D16C488078401E6B4988700846BC
:101D200080780A2829DB092088700846C078401E80
:101D3000C8700846C0780A281FDB0220C87003203C
:101D400088701AE05E480078FC2816D15E4800785A
:101D5000401E5D490870084600780A280DDB0920FE
:101D6000087008464078401E4870084640780328AE
:101D700003DB02204870032008705348017880205C
:101D800004F01EFE50484178812004F019FE4E48B0
:101D90008178822004F014FE4B48C178832004F03F
:101DA0000FFE48480078022808D10E21CC2004F00C
:101DB00007FE0E21CD2004F003FE0BE04148007821
:101DC000012807D10521CC2004F0FAFD0D21CD20FA
:101DD00004F0F6FD0D21862004F0F2FD0D21872090
:101DE00004F0EEFD36480178882004F0E9FD334820
:101DF000007805284ED1344800783349497801EB02
:101E0000810100EB4100314908702F4880782E494C
:101E1000C97801EB810100EB41002D490870294888
:101E20000078022803D101202A49087006E02548DD
:101E30000078012802D10020264908702448007843
:101E40008DF80000214800788DF8010002236A46D1
:101E50006821AE2004F0C2F93220FEF7E3FE02232F
:101E60006A466821AE2004F07FF99DF80000184909
:101E700008709DF8010015490870FF21882004F0C2
:101E80009FFD3F200E490870002013490870134938
:101E900008700FE0094800780D280BD1FF21882039
:101EA00004F08EFD3F200649087000200A490870A2
:101EB0000A490870FF200149087008BDC6000020CB
:101EC00031040020340400203E030020C300002021
:101ED000C2000020C1000020A80300203D04002013
:101EE0002DE9F0418EB00027B6480078072812D1BE
:101EF000B5480078FC280ADAB34800788010B24967
:101F000008700846007840F0C0000870B3E03F2039
:101F1000AD490870AFE0AB4800780E2858D1AA4808
:101F20000078FC2815D1A9480078401CA749087002
:101F3000084600780A28E9DB002008700846407847
:101F4000401C4870084640780628DFDB00204870B7
:101F500091E09D480078F32815D19C488078401C7A
:101F60009A498870084680780A28CFDB002088705C
:101F70000846C078401CC8700846C07806287ADB3E
:101F80000020C87077E090480078CF2873D18F4840
:101F9000407902280FDA8D480079401C8B4908717E
:101FA00008460079092866DD002008710846407956
:101FB000401C48715FE085480079401C83490871E6
:101FC00008460079032856DD00200871487152E068
:101FD0007C48007806284ED17B480078FC2815D133
:101FE0007A480078401E79490870084600780A2827
:101FF00041DB0920087008464078401E48700846BA
:102000004078062837DB0520487034E06E480078B9
:10201000F32815D16D488078401E6C4988700846B9
:1020200080780A2827DB092088700846C078401E7F
:10203000C8700846C07806281DDB0520C8701AE065
:1020400061480078CF2816D160480079401E5F496A
:102050000871084600790A280DDB09200871084636
:102060004079401E487108464079032803DB02206E
:1020700048710320087155480178802004F0A0FCC5
:1020800052484178812004F09BFC5048817882209E
:1020900004F096FC4D48C178832004F091FC4B4835
:1020A0000179842004F08CFC48484179852004F0B3
:1020B00087FC0A21CE2004F083FC0A21CF2004F003
:1020C0007FFC41480178882004F07AFC3D48007884
:1020D000052860D13D4800783C49497801EB8101F1
:1020E00000EB4100C4B2394880783849C97801EB27
:1020F000810100EB4100C5B2344800793349497988
:1021000001EB810100EB4100C6B28DF830608DF823
:1021100031508DF832409DF832209DF831109DF8F5
:10212000300002F035F96420FEF77CFDFEF77EF802
:10213000804603F089FB07462549781A01A904F077
:10214000A9FB244903980968C871224902980968C3
:10215000887120490198096848711E4904980968E6
:10216000C8701C490598096888700698A0F5FA603F
:102170001849096808804046FEF75CF8FF2188206E
:1021800004F01EFC3F20104908700020124908701E
:10219000124908700FE00B4800780D280BD1FF2181
:1021A000882004F00DFC3F200749087000200A49F0
:1021B00008700A490870FF20024908700EB0BDE897
:1021C000F0810000C600002031040020B80000208B
:1021D000807EAA8300000020A80300203D04002088
:1021E0001CB5FE480078072812D1FD480078FC286D
:1021F0000ADAFB4800788010F94908700846007830
:1022000040F0C0000870C4E13F20F5490870C0E10B
:10221000F24800780E2875D1F14800783F280BD19C
:10222000F0480078401CEF49087008460078032801
:10223000E9DD01200870ACE1E9480078CF280FD132
:10224000E84800780328DED1E7480078401CE649DA
:102250000870084600780528D5DD0120087098E14F
:10226000DF480078F32873D1DE480078012804D0D5
:10227000022833D0032869D152E0DC484078022894
:102280000FDADA480078401CD84908700846007810
:10229000092812DD0020087008464078401C48706C
:1022A0000BE0D2480078401CD049087008460078FE
:1022B000032802DD002008704870CC480078CB4924
:1022C000497801EB810100EB4100C9490870C94818
:1022D0000978405C401CC849087037E0C748C0789E
:1022E000012810DAC5488078401CC4498870084627
:1022F0008078092813DD002088700846C078401CCB
:10230000C8700CE067E0BD488078401CBB4988700D
:1023100008468078052802DB00208870C87015E028
:10232000B7488078401CB6498870084680780A28EB
:102330000BDB002088700846C078401CC870084637
:10234000C078062801DB0020C87000BF21E1FFE74C
:10235000A3480078FC28F9D1A2480078012804D0CD
:10236000022812D0032835D11EE09E4800780128AB
:102370000AD1A1480078401C9F490870084600789F
:10238000022801DD0120087024E09C480078401CF0
:102390009A49087008460078072801DD0020087077
:1023A00000209649487015E095480078401C9449F3
:1023B0000870084600780A280BDB002008700846E1
:1023C0004078401C487008464078062801DB002011
:1023D000487000BFDDE0814800780628B6D180480B
:1023E00000783F2810D17F480078401E7D49087052
:1023F00008460078012803DB084600780328A5DD9D
:10240000032078490870C4E075480078CF2814D1BB
:1024100074480078032899D173480078401E7249A7
:10242000087008460078012803DB08460078052874
:102430008CDD05206C490870ABE069480078F32812
:102440005FD168480078012804D002282AD00328E8
:1024500056D13FE065480078401E64490870084640
:1024600000780A280DDB0920087008464078401ED5
:10247000487008464078032803DB02204870032098
:1024800008705A4800785949497801EB810100EBFE
:1024900041005749087057480978405C401C56492C
:1024A00008702DE055488078401E544988700846D1
:1024B00080780A280DDB092088700846C078401E05
:1024C000C8700846C078022803DB0120C8700420C9
:1024D000887015E04A488078401E4949887008464F
:1024E00080780A280BDB092088700846C078401ED7
:1024F000C8700846C078062801DB0520C87000BFF8
:1025000047E037480078FC2843D136480078012856
:1025100004D0022817D003283AD123E031480078AC
:1025200001280FD134480078401E3349087008460E
:102530000078012803DB08460078022802DD02202B
:102540002D49087024E02D480078401E2B49087062
:1025500008460078072801DD072008700020274979
:10256000487015E026480078401E25490870084646
:1025700000780A280BDB0920087008464078401EC6
:10258000487008464078062801DB0520487000BFE7
:1025900000BF134800783F2847D11248007802282E
:1025A00039D1184800780A2190FBF1F201FB1200A2
:1025B00012490870134800780A2190FBF1F00F4986
:1025C0004870114800780A2190FBF1F201FB1200DB
:1025D0000A4988700C4800780A2117E0C6000020DC
:1025E000310400202E0400202F0400203E03002090
:1025F000360400201504002030040020420300208F
:10260000B8000020C5000020C400002090FBF1F0BD
:10261000C549C87009E0C5480078032805D10020E5
:10262000C349087048708870C870C0480078012895
:1026300004D0022836D0032833D158E0BD480078B2
:10264000022808D10E21C82004F0BAF90E21C920B1
:1026500004F0B6F90BE0B7480078012807D105214E
:10266000C82004F0ADF90D21C92004F0A9F9B24841
:102670000178822004F0A4F9AF484178832004F067
:102680009FF90A21842004F09BF90A21852004F097
:1026900097F90E21862004F093F90E21872004F08B
:1026A0008FF94CE0A0480178802004F089F99E4819
:1026B0004178812004F084F99B488178822004F0DD
:1026C0007FF99948C178832004F07AF90A2184209F
:1026D00004F076F90A21852004F072F90A21CE204F
:1026E00004F06EF90E21872004F06AF927E0904883
:1026F0000178802004F064F98D484178812004F04D
:102700005FF98B488178822004F05AF98848C178B3
:10271000832004F055F989480078401EC1B2842016
:1027200004F04EF90121852004F04AF90C2186209D
:1027300004F046F90E21872004F042F900BF00BFE3
:102740007F480178882004F03BF97E48007805280E
:102750007ED176480078012804D0022850D0032882
:102760004DD197E0744800787349497801EB8101B5
:1027700000EB4100744908700846007818283EDADA
:102780006C480078022805D1012070496E4A127801
:10279000885408E067480078012804D100206B497C
:1027A000694A12788854694867490978405C019001
:1027B000FDF73CFD0446644800782030C1B2012397
:1027C00001AAAE2003F00AFD2046FDF733FD642088
:1027D000FEF728FAFDF72AFD04465B480078203012
:1027E000C1B2012301AAAE2003F0BEFC2046FDF7D2
:1027F00021FD9DF804005549534A1278885470E031
:10280000494880784849C97801EB810100EB4100D3
:102810000F2809DA444880784349C97801EB8101DF
:1028200000EB41004A4908703F4800783E4949782A
:1028300001EB810100EB410008280BDA3A480078EF
:102840003949497801EB810100EB4100414900E041
:1028500055E008703E4800788DF800003D4800784B
:102860008DF8010002236A463821AE2003F0B6FC41
:102870006420FEF7D7F902236A463821AE2003F020
:1028800073FC9DF80000324908709DF80100314941
:10289000087026E0264880782549C97801EB810137
:1028A00000EB410005281BDA214880782049C978CF
:1028B00001EB810100EB4100C1B2274A1F480078BB
:1028C000093011541A4800781949497801EB8101FF
:1028D00000EB4100C1B2214A184800780930115478
:1028E00000BF00BFFF21882004F06AF83F20144990
:1028F000087000201A4908701A4908700FE0114842
:1029000000780D280BD1FF21882004F059F83F20D2
:102910000B49087000201249087012490870FF2006
:10292000084908701CBD0000420300202E0400204E
:10293000B8000020300400203E0300202F040020B7
:1029400031040020C60000203604002015040020B9
:10295000C4000020C5000020200300202F03002019
:10296000A80300203D04002000B5A9B08B480078E2
:10297000072812D18A480078FC280ADA88480078AB
:10298000C010874908700846007840F0E0000870E1
:102990004FE03F20824908704BE0804800780E28C5
:1029A0001FD17F480078FC280BD17E480078401C5E
:1029B0007C4908700846007805283ADB002008703A
:1029C00037E077480078E72833D177480078401C13
:1029D000754908700846007802282ADB0120087033
:1029E00027E06E480078062823D16D480078FC283F
:1029F0000BD16C480078401E6A4908700846007880
:102A0000042816DD0420087013E065480078E728E4
:102A10000FD165480078401E634908700846007869
:102A2000012803DB08460078012802DD01205E4909
:102A300008705C480178802003F0C2FF00218120EB
:102A400003F0BEFF0A21822003F0BAFF5648017846
:102A5000832003F0B5FF0F21CC2003F0B1FF0A2142
:102A6000852003F0ADFF0B21862003F0A9FF0C2188
:102A7000872003F0A5FF4A480178882003F0A0FFD3
:102A800046480078052874D147480078012862D16B
:102A90004648C07A00285ED142480078052840D2D6
:102AA000DFE800F0030A172E3B00002040490870C1
:102AB00001204049087034E001203D4908700020A1
:102AC0003D49087001203D490870022039490870CD
:102AD00027E00120364908703848007810B1FEF729
:102AE000BBFA04E03448007808B1FEF7CDF90020C5
:102AF000324908703049087003202E49087010E0F0
:102B000001202B49087000202C49087001202A4917
:102B1000087004202749087003E005202549087043
:102B200000BF00BF234801788DF88810012322AA36
:102B30000721AE2003F052FB6420FEF773F8012357
:102B40001F4A0721AE2003F00FFB1D48843890F880
:102B5000840018490870FF21882003F031FF3F20CE
:102B60000F4908700020174908701749087010E0D5
:102B7000FFE70A4800780D280BD1FF21882003F0D9
:102B80001FFF3F200649087000200E4908700E49BB
:102B90000870FF200149087029B000BDC600002060
:102BA0003104002032040020330400209201002070
:102BB000C00000202D040020CC010020CB0100200B
:102BC0002C2C0020A80300203D04002010B5EC4868
:102BD0000078072812D1EB480078FC280ADAE94887
:102BE00000788010E74908700846007840F0C0007F
:102BF0000870D7E03F20E3490870D3E0E048007850
:102C00000E2868D1DF4800783F280BD1DE480078D5
:102C1000401CDD490870084600780128E9DD0120E4
:102C20000870BFE0D7480078CF2820D1D748407936
:102C300001280FDAD5480079401CD44908710846AC
:102C400000790928D5DD0020087108464079401C2C
:102C50004871A7E0CD480079401CCC49087108466E
:102C600000790228C5DB0020087148719AE0C54848
:102C70000078F32815D1C5488078401CC349887076
:102C8000084680780A28B4DB002088700846C0789F
:102C9000401CC8700846C0780628AADB0020C8700F
:102CA00080E0B8480078FC287CD1B8480078401C07
:102CB000B6490870084600780A2873DB00200870BF
:102CC00008464078401C487008464078062869DB72
:102CD0000020487066E0AA480078062862D1A9481A
:102CE00000783F2810D1A8480078401EA6490870F7
:102CF00008460078012803DB08460078012851DDEA
:102D00000120A14908704DE09E480078CF2816D1D7
:102D10009E480079401E9D490871084600790A289E
:102D200040DB0920087108464079401E487108467A
:102D30004079022836DB01204871087132E0914861
:102D40000078F32815D191488078401E8F4988700B
:102D5000084680780A2825DB092088700846C07854
:102D6000401EC8700846C07806281BDB0520C870C6
:102D700018E084480078FC2814D184480078401E6C
:102D800082490870084600780A280BDB0920087081
:102D900008464078401E487008464078062801DB07
:102DA00005204870774800783F2841D17648007860
:102DB00001280CD17648006840797649087074483B
:102DC00000688079487072480068C07988707148DE
:102DD00000780A2190FBF1F201FB12006B490870A8
:102DE0006C4800780A2190FBF1F068494870694806
:102DF00040780A2190FBF1F201FB120063498870D0
:102E0000644840780A2190FBF1F06049C87061483D
:102E100080780A2190FBF1F201FB12005B490871F6
:102E20005C4880780A2190FBF1F0584948711DE018
:102E3000564800785549497801EB810100EB410083
:102E400054490870514880785049C97801EB810194
:102E500000EB41004F4948704C4800794B49497993
:102E600001EB810100EB41004A498870002408E031
:102E7000464A115D04F18002D0B203F0A1FD601C4E
:102E8000C4B2062CF4DB40480178862003F098FD9C
:102E90000F21CF2003F094FD3A480178882003F0F9
:102EA0008FFD37480078052856D13748007801282B
:102EB00045D1364800783549497801EB810100EB6E
:102EC0004100C1B2344880F87F10304880782F49E3
:102ED000C97801EB810100EB4100C1B22E4880F8B6
:102EE0007E102A4800792949497901EB810100EBDC
:102EF0004100294981F87D00032301F17D02002171
:102F0000AE2003F06BF96420FDF78CFE0823224A03
:102F10007D320021AE2003F027F91F4890F87D0094
:102F20001B490968C8711C4890F87E001849096857
:102F30008871194890F87F00154909684871FF2188
:102F4000882003F03DFD3F200E4908700020134902
:102F50000870134908700FE0094800780D280BD15C
:102F6000FF21882003F02CFD3F2006490870002037
:102F70000A4908700A490870FF200149087010BD0D
:102F8000C60000203104002033040020B8000020D7
:102F90000C01002037040020A82B0020A8030020EB
:102FA0003D04002008B501210C2001F04FF810204D
:102FB000ADF800008DF8030003208DF8020069468B
:102FC0001A48FEF757F94FF48050ADF80000102072
:102FD0008DF8030003208DF8020069461448FEF7BF
:102FE00049F94FF480511248FEF711FB2020ADF84B
:102FF000000048208DF8030003208DF80200694688
:103000000A48FEF737F94020ADF8000048208DF857
:10301000030003208DF8020069460448FEF72AF9F0
:1030200010210248FEF7F3FA08BD00000008014035
:10303000000C014000B585B00121052001F006F823
:103040004FF40060ADF8000002208DF80200482027
:103050008DF8030004A91548FEF70CF94FF4006041
:10306000029000208DF80C0010208DF80D0001203A
:103070008DF80E0002A8FDF7BDFE0B210020FEF723
:10308000D5F84FF40060FDF79BFE28208DF8040072
:1030900000208DF8050001208DF806008DF807004E
:1030A00001A800F005F805B000BD000000080140CF
:1030B00070B5002100230F22C4780CB3164C24688D
:1030C00004F4E064C4F5E064210AC1F10403CA40D9
:1030D000447804FA03F184781440214309010F4C29
:1030E0000678A155047804F01F050124AC4005784A
:1030F0006D114FF0E02606EB8505C5F8004109E0AB
:10310000047804F01F050124AC40054D06787611C3
:1031100045F8264070BD00000CED00E000E400E042
:1031200080E100E002490143024A1160704700005B
:103130000000FA050CED00E0704710B500F011F842
:1031400000F0F2FC00F016FD00F038FD00F0C4FCC9
:1031500000F08AFC00F066FD00F08CFD00F002F843
:1031600010BD70477047000006480078012808D15C
:1031700005480078FF2804D203480078401C024923
:1031800008707047820300207503002010B50024EA
:103190001A480078012830D1FDF748F8044618484D
:1031A0000078002804DD16480078401E1449087095
:1031B00013480078F0B913480078D8B900F0CCFD76
:1031C0001148007811490978884213D010480E49F7
:1031D000097850F821000F49086008460068006B24
:1031E000401C096808630C480068401C0A490860D4
:1031F000FDF738F82046FDF71DF810BD82030020CA
:103200007503002076030020780300207703002058
:1032100030360020900300205C0300202DE9F041AF
:1032200006460D46002715B90020BDE8F0813F2E67
:1032300003DB2A2028700020F7E7214800780028C7
:1032400003DD102028700020EFE7FCF7EFFF0746B2
:103250001C4850F8260030B13846FCF7EBFF282018
:1032600028700020E1E70120164941F826001648A1
:1032700004684CB9002041F826003846FCF7DAFF14
:10328000042028702046D0E70F48006840680E49A7
:1032900008603846FCF7CEFF04202070FF2040EA8B
:1032A00006202081002060603F20E074002121750D
:1032B000204600F0CAFB002028702046B5E7000039
:1032C00075030020303600206003002070B50546ED
:1032D000002612480078002801DD002070BDFCF7B0
:1032E000A5FF06460E480468006820B10C48006837
:1032F00040680B4908603046FCF79CFF5CB1032036
:1033000020702581002060603F20E074002121753D
:10331000204600F09AFB2046E0E7000075030020FD
:103320006003002010B50B48007890B900F014FD40
:10333000094800780949087009480749097850F890
:103340002100084908600846006807490860FCF742
:1033500074FF10BD82030020780300207703002053
:1033600030360020900300208803002010B5002490
:10337000022000F03FFAFCF759FF044600200B49F9
:1033800008602046FCF756FF642000F033FAFCF793
:103390004DFF0446054800680549086001200549BD
:1033A00008702046FCF746FF10BD00008403002093
:1033B0006C03002074030020704700002DE9F04FDB
:1033C00085B081468A4693461C46DDE90F78129DFA
:1033D000002003903F2C03DD2A2005B0BDE8F08FCC
:1033E000FCF724FF039022480078002804DD0398AE
:1033F000FCF720FF3C20F0E71E4850F8240088BB73
:1034000001201C4941F824000398FCF713FF2A46C9
:103410004146384600F0DCFD2B465A4651464846A8
:1034200000F09AF904901198CDE9008002953A468F
:1034300020460E9B049900F0BDFC064636B90E48A6
:10344000007801280CD100F047FC09E0FCF7EEFE03
:1034500003900020074941F824000398FCF7EAFE96
:103460003046BAE7FFE70398FCF7E4FE2820B4E70C
:1034700075030020303600208203002070470000D2
:103480002DE9F04705464FF0000954480078002820
:1034900002DD4020BDE8F0873F2D01D13E20F9E755
:1034A0003F2D03DBFF2D01D02A20F3E7FCF7BEFE02
:1034B0008146FF2D03D14A48006890F82A504948B8
:1034C00050F8254024B94846FCF7B4FE4320E1E714
:1034D000012C04D14846FCF7ADFE3D20DAE794F814
:1034E0002C704148C05D94F82D1088433E49C85562
:1034F0000846C05D30B994F82E103C4800788843E7
:103500003A490870E66986B106F10B00C05D94F88F
:103510002D10884306F10B01C8550846C05D20B93F
:10352000B07A94F82E108843B072D4F82080B8F1A5
:10353000000F02D0404600F0BDFA0020E08484F87D
:10354000280084F829002A480078FF2804D2284857
:103550000078401C264908704846FCF76BFE00F0D6
:1035600073FAFCF763FE814621480078002804DDE9
:103570001F480078401E1E490870204600F042F89F
:103580001C480078401E1B4908700020154941F86E
:103590002500A06930B90020616988611649606919
:1035A000086005E0D4E905014861D4E905108861A7
:1035B000124800686061114804603F2084F84400AC
:1035C0000021452001554846FCF734FE0C480078A0
:1035D000012801D100F080FB00205BE7750300208B
:1035E00088030020303600207A0300207903002071
:1035F0007603002083030020940300208C03002026
:1036000082030020704770472DE9F04705460F46BA
:1036100014464FF000090CB9BDE8F0873F2D04DDDA
:10362000FF2D02D02A202070F6E717B90C20207059
:10363000F2E71D480078002802DD12202070EBE739
:10364000FCF7F4FD8146FF2D03D11848006890F87F
:103650002A50174850F825602EB94846FCF7EAFD75
:1036600043202070D8E7012E05D14846FCF7E2FD43
:1036700043202070D0E7384600F092FB8046B8F136
:103680000F0F05DD4846FCF7D5FD41202070C3E74C
:10369000394606F1440000F075FB4846FCF7CAFDC8
:1036A0000020207000BFB7E77503002088030020CA
:1036B00030360020704700002DE9F04706460C46E2
:1036C0004FF0000A3F2E04DDFF2E02D02A20BDE875
:1036D000F0870CB90920FAE7002020606060FCF751
:1036E000A5FD8246FF2E03D11948006890F82A6094
:1036F000184850F8265025B95046FCF79BFD43204A
:10370000E5E7012D04D15046FCF794FD4320DEE7A8
:10371000287C10F0010F04D15046FCF78BFD4520AA
:10372000D5E70027D5F80C90D5F808805046FCF76F
:1037300081FD00E07F1C58F8041B0029FAD0B80076
:103740002060A9EB0700800060600020BFE7000058
:10375000880300203036002070B5044610464FF034
:1037600080750560051F28462C606FF00106051F57
:1037700028462E604FF01236051F28462E604FF067
:103780000336051F28462E604FF00236051F2846D7
:103790002E607610051F28462E60051F28462960DA
:1037A0004FF01136051F28462E604FF01036051FCA
:1037B00028462E604FF00936051F28462E604FF030
:1037C0000836051F28462E604FF00736051F28468D
:1037D0002E604FF00636051F28462E604FF0053646
:1037E000051F28462E604FF00436051F28462E6020
:1037F00070BD704770B50546002616480078002851
:1038000000DD70BD002D23DDFCF710FD06461248DB
:10381000006890F82C401148005D0F49096891F844
:103820002D1088430D4908550846005D40B90A48E7
:10383000006890F82E100A480078884308490870FC
:1038400005480068C5843046FCF7F4FC00F044FAF3
:1038500000BFD6E775030020880300207A0300200C
:10386000790300202DE9F04780460D4616461C4698
:1038700024480078002802DD5520BDE8F087B8F123
:10388000000F04D11DB916B90CB95420F5E73B2D32
:1038900001DD5120F1E73B2E01DD5220EDE7B4F5CB
:1038A0007A7F01DB5320E8E74FF47A7060434FF4EE
:1038B0007A71B0FBF1F14FF4616008FB00F0C5EBE9
:1038C000051200EB8200304400EB4002C2EBC01056
:1038D00001EBC0074FEA1749BFB23846FFF78AFF2E
:1038E0000BE04FF40040FFF785FF4FF40040FFF777
:1038F00081FFA9F101001FFA80F9B9F1000FF0DC96
:103900000020BAE77503002070B500262F48007824
:10391000012858D12E48007820B1012804D002286F
:1039200009D103E001250BE0002509E00125012074
:103930002749087004E0012500202549087000BFD0
:1039400000BF05B970BD2348046838E0FCF76EFC81
:103950000646E08C78B3E08C401E0004000CE08446
:1039600029D194F8280010F0370F09D014F8280F47
:1039700020F03700207001206070A4F1280402E0DC
:10398000002084F8290094F8280010F0080F12D1C4
:1039900004F12C04A0781049097840EA01000E498E
:1039A000087020780D49085C617840EA010014F83D
:1039B0002C190A4A505464693046FCF73BFC94F8D1
:1039C0002A003F28C2D100BFBCE7000082030020CC
:1039D0009803002094030020790300207A0300203C
:1039E00070B586B001A800F051FB4FF47A710298CF
:1039F000B0FBF1F42146B1F1807F00D31DE021F04E
:103A00007F40401E4FF0E022506150170F220028E7
:103A100007DA13071E0E0A4B00F00F052D1F5E5527
:103A200003E013071D0E074B1D5400BF00204FF08D
:103A3000E02290610720106100BF06B070BD000059
:103A400018ED00E000E400E070470023837200F10D
:103A50000B01002204E0002301F8013B531CDAB201
:103A6000082AF8DB7047000070B58C210F4800F081
:103A700029F90E4C04F11C0600250AE000202070F4
:103A800066603F2060720021A1721C341C36681CE5
:103A900085B2042DF2DB0020207060603F20607250
:103AA0000021A17201480249086070BDD42D002098
:103AB0006403002030B501464A6808682AB9CC681A
:103AC000606028B10025456002E0106000B14260EE
:103AD0008B6800251D6230BD30B54FF4C6711048AB
:103AE00000F0F0F80E4B03F1240500240AE000205A
:103AF00018705D603F20D874002119752433243577
:103B0000601C84B20A2CF2DB0020187058603F2041
:103B1000D8740021197502480249086030BD0000C0
:103B2000482C002060030020002009490870094942
:103B3000087009490870094908700949086009496D
:103B40000860094908600949086009490870704718
:103B500075030020760300208303002082030020E9
:103B60005C03002084030020700300206C0300200D
:103B70007403002000220B4B1A700B49002004E054
:103B8000002201F8012B421CD0B20828F8DB0022E9
:103B9000064B1A70064B1A70064B1A60064B1A60D9
:103BA00070470000790300207A030020770300208B
:103BB00078030020900300208803002030B54FF4E4
:103BC000BD61144800F07EF84FF48071124800F097
:103BD00079F8104B03F1540500240AE05D613F20A1
:103BE00083F8440000214520C15454335435601CEF
:103BF000C4B2112CF2D3002058613F2083F8440056
:103C000000214520C15400200449086001480449AE
:103C1000086030BD3037002030360020940300208B
:103C20008C03002000B587B003200021FA220A4B44
:103C3000CDE90132CDE903104FF6FF703F23074A6B
:103C400000900748FFF7BAFB06AA06A13F20FFF73E
:103C5000DBFC07B000BD0000483200202C360020FD
:103C6000E13E000875432F4F532D49492049646CAC
:103C70006500000000B587B003200021FA220A4B3E
:103C8000CDE90132CDE903104FF6FE703E23074A1D
:103C900000900748FFF792FB06AA06A13E20FFF717
:103CA000B3FC07B000BD0000602E002044320020AD
:103CB000053F000875432F4F532D49492053746128
:103CC0007400000004E0002200F8012B4A1E91B2AB
:103CD0000029F8DC7047000010B50024FCF7A6FAB4
:103CE00004461648007828BB1548007810BB00F041
:103CF00033F814481449097850F821001349086032
:103D00001148007812490978884213D00D480E49AD
:103D1000097850F821000D49086008460068006BDA
:103D2000401C096808630B480068401C094908608A
:103D3000FCF793FA2046FCF77DFA10BD75030020CE
:103D40007603002030360020780300209003002006
:103D5000770300205C0300200649074A1278885C3C
:103D60000649095C034A515C01EBC001044A117029
:103D700070470000196A0008790300207A030020C8
:103D8000780300200246002005E011F8013B02F80C
:103D9000013B431CD8B20B78002BF6D1137070474F
:103DA0000146002002E0491C421CD0B20A78002AD9
:103DB000F9D170472DE9F84F05460E46174698464B
:103DC000DDE90BABDDF8289000200090FCF72EFA1F
:103DD00000903D480468002C70D054F8140F3A4904
:103DE00008600098FCF726FA44F8146CA5750020CA
:103DF00020756075608244F810AC44F8089C44F863
:103E00000C7C24F804BC24F8028CE076E8102076C0
:103E1000217E01208840A07605F00700E075E17D55
:103E20000120884060760020A060E060E061606270
:103E30002062A062E0623F2084F83000A4F1140404
:103E40004FF000014FF0450001552046FFF7B4FA4E
:103E50002046FFF713FBFCF7E9F900901B4840F8F8
:103E600025401B48006860610020A0611848006878
:103E700010B11748006884611548046004F12C04EF
:103E8000A0781449097840EA0100124908702078A6
:103E90001149085C617840EA010014F82C190E4AB7
:103EA00050540E48007800F101000C490870009849
:103EB000FCF7C0F90020BDE8F88FFFE70098FCF799
:103EC000B9F94220F7E700008C03002030360020CB
:103ED00094030020790300207A030020830300204C
:103EE000002400BFFCF7A2F9044605480068401C06
:103EF000034908602046FCF79DF9FFF784FBF1E7D2
:103F000084030020002700BF02E0C820FFF772FCF6
:103F10001B4800780028F8D01A4800686421B0FBDC
:103F2000F1F400BFFCF782F907461748006817490B
:103F30000860154806680020134908603846FCF7F9
:103F400079F96CB1B6FBF4F0C0F1640045B2002D14
:103F500002DB0F4805700BE000200D49087007E0F8
:103F600000200B490870074800686421B0FBF1F499
:103F7000FFF7A0FB00F00EF86420FFF73BFCD1E751
:103F8000740300206C0300208403002070030020D1
:103F9000680300207CB5002514E069462846FFF739
:103FA0008BFB064666B9094850F8254044B1012C00
:103FB00006D0D4E9020100EB8100E063019820649F
:103FC000681CC5B23F2DE8DD7CBD00003036002006
:103FD00012F0010F08D012F0020F05D002E0491EC6
:103FE000002308C00029FAD17047704729B1064A5A
:103FF00052690243044B5A6104E0034A5269824306
:10400000014B5A61704700000010024029B1064A76
:10401000D2690243044BDA6104E0034AD269824365
:10402000014BDA61704700000010024029B1064AD6
:1040300012690243044B1A6104E0034A1269824385
:10404000014B1A61704700000010024029B1064A76
:1040500092690243044B9A6104E0034A92698243E5
:10406000014B9A61704700000010024029B1064AD6
:10407000D2680243044BDA6004E0034AD268824308
:10408000014BDA6070470000001002402DE9F0415A
:1040900000210022002500230026002400278C4652
:1040A000DFF86081D8F8048008F00C0121B1042900
:1040B00007D0082959D109E0DFF84C81C0F8008009
:1040C00058E0DFF84881C0F8008053E0DFF8348121
:1040D000D8F8048008F47012DFF82881D8F804803A
:1040E00008F48035920C0D2A01D0921C00E00622C3
:1040F00035B9DFF81C8102FB08F8C0F8008033E016
:10410000DFF80081D8F82C8008F48036DFF8F480DE
:10411000D8F82C8008F00F0808F1010446B9DFF840
:10412000EC80B8FBF4F808FB02F8C0F800801BE054
:10413000DFF8D080D8F82C80C8F3031808F1010705
:10414000DFF8C080D8F82C80C8F3032808F1020CEF
:10415000DFF8B880B8FBF7F808FB0CF8B8FBF4F808
:1041600008FB02F8C0F8008004E0DFF89C80C0F88B
:10417000008000BF00BFDFF88C80D8F8048008F012
:10418000F0010909DFF88C8018F80130D0F80080C0
:1041900028FA03F8C0F80480DFF86880D8F80480B3
:1041A00008F4E061090ADFF86C8018F80130D0F8F3
:1041B000048028FA03F8C0F80880DFF84880D8F8AF
:1041C000048008F46051C90ADFF8488018F801300B
:1041D000D0F8048028FA03F8C0F80C80DFF82480B7
:1041E000D8F8048008F44041890BDFF82C8018F8D7
:1041F0000130D0F80C80B8FBF3F8C0F81080BDE8AF
:10420000F08100000010024000127A0040787D0129
:1042100000093D0046030020560300207047704708
:1042200070470000F8B54FF480712C48FDF7EFF9A6
:10423000002403E001F084F9601CC4B2282CF9DBEF
:104240004FF48070ADF8000002208DF802000420C9
:104250008DF8030069462148FDF70CF8002425E09D
:104260004FF400711D48FDF7D2F9002603E001F07C
:1042700067F9701CC6B2082EF9DB6806050E4FF40C
:1042800080711648FDF7B8F908B145F001054FF403
:1042900000711248FDF7B9F9002703E001F050F969
:1042A000781CC7B2082FF9DB601CC4B2082CD7DB1E
:1042B0004FF48070ADF8000002208DF8020010204D
:1042C0008DF8030069460548FCF7D4FF4FF4807170
:1042D0000248FDF79AF92846F8BD00000018014091
:1042E00070477047704700002DE9F041064601F025
:1042F00027F94FF480712548FDF789F9002403E080
:1043000001F01EF9601CC4B2282CF9DB002438E04F
:1043100016F0800F05D04FF480711C48FDF777F937
:1043200004E04FF480711948FDF76FF94FF4007104
:104330001648FDF76CF9002503E001F001F9681C4F
:10434000C5B2082DF9DB4FF480711048FDF75DF917
:10435000002703E001F0F4F8781CC7B2082FF9DB5E
:104360004FF400710948FDF750F9002503E001F012
:10437000E7F8681CC5B2082DF9DB7006060E601C54
:10438000C4B2082CC4DBBDE8F08100000018014075
:104390002DE9F0479AB004460D4616464020179086
:1043A0004FF0000A01F050FA82464149AAEB0100A1
:1043B00001A902F06FFA0498C7B2059800F0FF084F
:1043C0000698A0F5FA6000F0FF093A490968384AF2
:1043D000881A0CA902F05EFA0A2096FBF0F100FBA5
:1043E00011600A2196FBF1F140EA0110C0B28DF88C
:1043F00060000A2095FBF0F100FB11500A2195FBAB
:10440000F1F140EA0110C0B28DF861000A2094FB7E
:10441000F0F100FB11400A2194FBF1F140EA011098
:10442000C0B28DF862000A21129890FBF1F201FBF4
:1044300012000A22129991FBF2F140EA0110C0B277
:104440008DF863000A2097FBF0F100FB11700A2140
:1044500097FBF1F140EA0110C0B28DF864000A2028
:1044600098FBF0F100FB11800A2198FBF1F140EA82
:104470000110C0B28DF865000A2099FBF0F100FB35
:1044800011900A2199FBF1F140EA0110C0B28DF8B8
:104490006600012317AA0E21D02001F09FFE0723FA
:1044A00018AA0021D02001F099FE1AB0BDE8F087CB
:1044B000807EAA830801002010B500F001F810BD2D
:1044C0000CB50020019000903E48006840F4803018
:1044D0003C49086000BF3B48006800F40030009091
:1044E0000198401C0190009818B90198B0F5A06F90
:1044F000F1D13448006810F4003F02D00120009050
:1045000001E000200090009801285AD12E48006850
:1045100040F010002C4908600846006820F00300B5
:1045200008600846006840F00200086025484068BE
:10453000244948600846406848600846406840F49E
:10454000806048600846C06A204908401D49C8622A
:104550000846C06A1E4908431A49C86208460068EE
:1045600040F08060086000BF1648006810F0006FDF
:10457000FAD01448406820F47C101249486008467C
:10458000406840F4E81048600846006840F08070D9
:10459000086000BF0B48006810F0007FFAD009489F
:1045A000406820F00300074948600846406840F032
:1045B0000200486000BF0348406800F00C00082873
:1045C000F9D10CBD001002400020024000F0FEFFB7
:1045D0004406010010B5FEF7C7FD2A480088401CBC
:1045E0002849088008460088B0F5967F06DD00203F
:1045F0000880012024490870244908702448008854
:10460000401C2349088008460088B0F57A7F04DB07
:104610000020088001201F4908701F48007820B141
:104620001E480088401C1D4908801D48007820BB9A
:104630001C48006840791E2804D01A480068407958
:10464000352807D11848007820B90120164908708C
:10465000164908701448007878B115480088401C45
:10466000134908800846008840F21451884204DD4E
:1046700000200D4908700E490880FFF745F9FEF744
:1046800085FD10BD5A010020840100204801002052
:104690005C0100207301002044010020460100203D
:1046A000C00000200000002061010020490100201E
:1046B0006201002010B51648006840F0010014495E
:1046C0000860084640681349084011494860084698
:1046D0000068114908400E4908600846006820F447
:1046E000802008600846406820F4FE0048600846C4
:1046F000006820F0A05008604FF47F008860002020
:10470000C862FFF7D9FE4FF000600449086010BD91
:10471000001002400000FFF0FFFFF6FE08ED00E091
:1047200070477047704700001FB50121C802FFF7AE
:104730008DFC194800F022F94720ADF80400002054
:10474000ADF8060042F20F70ADF808000020ADF899
:104750000A008DF80C0001A90F4800F01DFA012194
:104760000D4800F0F9F8012211460B4800F00BFA51
:104770000121094800F0F6F819208DF8000000200A
:104780008DF801008DF8020001208DF803006846C5
:10479000FEF78EFC1FBD0000002C0140704700009A
:1047A00010B501215D4800F0DDF900287ED001211F
:1047B0005A4800F0D4F85A480078401C584908700C
:1047C00008460078142805DA4FF400415548FCF7F4
:1047D0001CFF10E052480078642805DA4FF40041CD
:1047E0005048FCF714FF06E04D480078642802D1D9
:1047F00000204B4908704C480068401C4A4908603A
:10480000084600686FF00041884202D10020464906
:1048100008604648007820B145480068401C44497B
:10482000086044480078401C4249087008460078F7
:10483000022801D1002008703F480088401C3E49F2
:10484000088008460088B0F5FA7F03D0B0F57A7F7B
:1048500005D100E003E000203749088000BF00BF19
:1048600036480088401C354908800846008864287E
:104870004AD100200880324800684079401C304905
:10488000096848712E48006840793C2827D10020EB
:104890002B49096848712A4800688079401C2849DA
:1048A0000968887126480068807900E035E03C2876
:1048B00015D1002022490968887121480068C07913
:1048C000401C1F490968C8711D480068C07918213B
:1048D00090FBF1F201FB120019490968C8711848F0
:1048E00000688079392802DD0120164908701448D3
:1048F00000688079012807D11148006840790528AF
:1049000002D100200F4908700F480078FF2804DA10
:104910000D480078401C0C49087010BD002C014067
:1049200069010020000801408801002030010020BA
:10493000740100206801002066010020640100204D
:10494000000000207801002006000020704770471A
:104950007047704770477047CA4302827047CA4326
:104960000282704721B1028842F00102028004E015
:1049700002884FF6FE731A400280704710B5044655
:104980006848844208D10121C014FFF76FFB002161
:10499000E014FFF76BFBC4E0B4F1804F08D10121B4
:1049A0000846FFF743FB00210120FFF73FFBB8E07B
:1049B0005D48844208D101210220FFF737FB002126
:1049C0000220FFF733FBACE05848844208D10121B4
:1049D0000420FFF72BFB00210420FFF727FBA0E0BA
:1049E0005348844208D101210820FFF71FFB002112
:1049F0000820FFF71BFB94E04E48844208D10121B8
:104A00001020FFF713FB00211020FFF70FFB88E0B9
:104A10004948844208D101212020FFF707FB0021EB
:104A20002020FFF703FB7CE04448844208D10121A9
:104A30004014FFF71BFB00216014FFF717FB70E029
:104A40003F48844209D10121C804FFF70FFB002130
:104A50004FF40020FFF70AFB63E03A48844209D193
:104A600001210805FFF702FB00214FF48010FFF73A
:104A7000FDFA56E03448844209D101214805FFF788
:104A8000F5FA00214FF40010FFF7F0FA49E02F4843
:104A9000844208D101214020FFF7C8FA00214020BC
:104AA000FFF7C4FA3DE02A48844208D10121802062
:104AB000FFF7BCFA00218020FFF7B8FA31E0254863
:104AC000844208D101218015FFF7B0FA0021A0151A
:104AD000FFF7ACFA25E02048844209D101210804FF
:104AE000FFF7C4FA00214FF48030FFF7BFFA18E057
:104AF0001A48844209D101214804FFF7B7FA00217E
:104B00004FF40030FFF7B2FA0BE01548844208D1A9
:104B100001218804FFF7AAFA00214FF48020FFF753
:104B2000A5FA10BD002C0140000400400008004020
:104B3000000C004000100040001400400034014010
:104B4000004C01400050014000540140001800405A
:104B5000001C004000200040004001400044014093
:104B60000048014030B50246002000230024158A89
:104B700005EA0103958905EA010413B10CB101208E
:104B800000E0002030BD1AB183890B43838102E02D
:104B900083898B4383817047002202881D4B984292
:104BA0000ED01D4B98420BD0B0F1804F08D01B4B5C
:104BB000984205D01A4B984202D01A4B984204D121
:104BC0004FF68F731A404B881A43174B984207D001
:104BD000164B984204D04FF6FF431A40CB881A4335
:104BE00002808B8883850B8803850A4B98420BD003
:104BF000094B984208D00E4B984205D00D4B984275
:104C000002D00D4B984201D10B7A03860123838297
:104C100070470000002C01400034014000040040B7
:104C200000080040000C004000100040001400404C
:104C300000400140004401400048014070B5B248C6
:104C4000007808287ED2DFE800F0046CBEDFF87D33
:104C50007DF7002461E0AD48005D01285BD1AC48E0
:104C600004700020AB490870AB480078AB4908706D
:104C7000AB480078AB490870AB48A8490978405C5C
:104C8000C0F13B00A9490870A948A4490978405CD3
:104C9000A0490978401AC0F13B00A64908709C4819
:104CA0000078401EA449087008460078182801DBE7
:104CB000172008709F480078401EA04908700846D9
:104CC00000783C280DDB3B2008709B480078401E94
:104CD0009B49087008460078182806DB17200870E2
:104CE00003E0954800789649087096480068C079B6
:104CF0009349097888420ED19248006880798F499B
:104D00000978884207D110218F48FCF780FC0120E8
:104D10007D49087003E0601CC4B2182C9BDB00BF07
:104D2000EFE088480068C07983490978884231D12A
:104D30008448006880797F49097888422AD181486F
:104D4000006800E0D9E0407978490978884221D1AB
:104D500070480078801C7D490870084600783C281F
:104D60000DDB002008706A480078401C7849087004
:104D700008460078182806DB0020087003E0644825
:104D800000787349087002205F490870002071495B
:104D9000087017E06B480068C07967490978884255
:104DA00010D168480068807962490978884209D141
:104DB0006448006840795D490978884202DD07202F
:104DC000514908709DE063480078A0B9FBF72EFABE
:104DD000064601F0FDFA3046FBF72CFA0A20FBF7F5
:104DE00021FF5D494C4A1278885C01F009FB0120E3
:104DF0005849087007E003204349087000205749CC
:104E00000870544908707CE04E480068C0794A49EF
:104E10000978884212D14B48006880793B280DD12F
:104E20004848006840793B2808D100204B49087069
:104E300004203549087017E049E016E04148006851
:104E4000C0793349097888420ED13E48006880799C
:104E500030490978884207D13A48006840790028EB
:104E600002DD0720284908704BE02A48007890B9F5
:104E7000274800780C2190FBF1F201FB120008B9E1
:104E80000C2509E0224800780C2190FBF1F201FB8F
:104E90001200C5B200E0012521480078082815DA83
:104EA0004FF4C850FBF7BEFE2D491D4A127831F869
:104EB00012102944491E88B201F0A2FA07201249B3
:104EC00008700020254908702249087019E01D4823
:104ED0000068C0791E49097888420DD119480068D8
:104EE00080791A490978884206D10020064908705D
:104EF00010211548FCF789FB03E0002002490870E7
:104F000000BF00BF70BD0000F900002015040020A4
:104F10000301002004010020C4000020FA0000204A
:104F2000C5000020FB0000202F030020FE00002011
:104F300020030020FD000020FC00002002010020D2
:104F40000101002000000020000C014000010020B1
:104F5000FF000020BE0000200A6A0008F8000020C0
:104F6000100300207047704770B500240025FBF740
:104F70005DF906461B480078401C1A490870304607
:104F8000FBF758F940F22441174800F013FA0128C2
:104F90001CD115480488001D048800211348FBF724
:104FA0006CFD1248FBF71CFEC0F1960084B210485D
:104FB000048096200D495839C86501210B48FBF73C
:104FC0005CFD01200B4908700B490870FBF72EF9B6
:104FD000064604480078401E024908703046FBF738
:104FE00029F970BD750300200038014058000240C7
:104FF000BC030020830100200E04002010B592B0F5
:105000000446012144F20400FFF720F8012108467C
:10501000FFF71CF818208DF837004FF40070ADF83A
:10502000340003208DF836000DA93F48FCF722F923
:1050300004208DF837000002ADF834000DA93A487D
:10504000FCF718F90E940020ADF83C00ADF83E00D6
:10505000ADF84000ADF844000C20ADF842000EA9B8
:10506000324800F0F7F925208DF8040001208DF872
:10507000050000208DF8060001208DF8070001A82A
:10508000FEF716F8012240F22441284800F0BCF94E
:1050900001224021254800F077F940F224412348BD
:1050A00000F05DF92248FBF7F5FC2148FBF7F2FC24
:1050B00001210846FEF79AFF1C48001D02901D487A
:1050C00003900020049096200590002006908020F8
:1050D000079000200890099020200A9000020B9071
:1050E00000200C9002A91248FBF77EFD012240210E
:1050F0000E4800F049F90F208DF8040000208DF8CB
:10510000050001208DF806008DF8070001A8FDF7C5
:10511000CFFF01210648FBF7B0FC0121034800F056
:1051200027F912B010BD000000080140003801400E
:1051300058000240183D00202DE9F04100240025D0
:10514000FBF774F8074641480078401C3F49087057
:105150003846FBF76FF820213D4800F01EF9002883
:1051600066D03C480088C6B23A48001D0088C6B2E6
:10517000374800F0DBF9384908700846007800F03D
:10518000D7F835480078BB2852D1344834490860F4
:1051900000BF09E00120FBF754FD601C84B247F218
:1051A0003050844200DD05E02021294800F0F5F868
:1051B0000028EFD000BF264800F0B8F92849096858
:1051C000087027480068401C25490860681CC5B263
:1051D000082DDEDB214880790D2829D11F48C079B0
:1051E0000A2825D11D4800781E490968C8711B4846
:1051F00040781C49096888711848807819490968FD
:1052000048711648C07818490870144800790C2174
:1052100090FBF1F201FB1200144908700F4840792D
:1052200018B900201249087002E0012010490870E6
:10523000FAF7FCFF074605480078401E034908704E
:105240003846FAF7F7FFBDE8F0810000750300204B
:105250000044004000380140810100207901002015
:105260005001002000000020140100201501002042
:105270001101002010B586B0044601214804FEF754
:10528000C5FE01212020FEF7E1FE01210846FEF7C0
:10529000DDFE01210820FCF767F92020ADF80400AD
:1052A00003208DF8060018208DF8070001A91E487C
:1052B000FBF7E0FF4020ADF8040004208DF8070064
:1052C00001A91948FBF7D6FF02940020ADF80C00A5
:1052D000ADF80E00ADF81000ADF814000C20ADF8DC
:1052E000120002A9114800F0B5F826208DF8000040
:1052F00001208DF8010002208DF8020001208DF8B8
:1053000003006846FDF7D4FE012240F2255107480C
:1053100000F07AF80121054800F02AF880210348BE
:1053200000F01DF806B010BD00140140004400401C
:1053300008490968087007490A6807498A4203D181
:105340000939044A116004E002490968491C014A0C
:10535000116070479C030020D13D0020704701F48C
:105360000072B2F5007F00D100BFCA4302807047CF
:1053700021B1828942F40052828104E082894DF693
:10538000FF731A40828170471AB1838A0B4383826C
:1053900002E0838A8B438382704702460020B1F586
:1053A000007F00D100BF13880B4201D0012000E034
:1053B0000020704770B5024600240023002500201D
:1053C000A1F510666A3E00D100BFC1F3421501F09D
:1053D0001F03012606FA03F3012D02D196893340FB
:1053E00006E0022D02D1168A334001E0968A33404E
:1053F0000C12012606FA04F41688344013B10CB1DD
:10540000012000E0002070BDF0B503460024002616
:1054100000250020A1F510676A3F00D100BF1846A3
:10542000C1F3421401F01F06012707FA06F5012C0B
:1054300001D10C3004E0022C01D1103000E0143016
:105440001AB107682F43076002E00768AF4307609F
:10545000F0BD00002DE9F04786B005460E46002459
:10546000A24600BFA1460027B08900B100BF2F4669
:105470002C8A4CF6FF700440F08804432C82AC89DF
:105480004EF6F3100440B08831890843718908430F
:105490000443AC81AC8A4FF6FF400440B08904431A
:1054A000AC8201A8FEF7F2FD1F48874202D1DDF869
:1054B00010A001E0DDF80CA0A88910F4004F08D07E
:1054C0000AEBCA0000EB0A1031684900B0FBF1F8A2
:1054D00007E00AEBCA0000EB0A1031688900B0FB54
:1054E000F1F86420B8FBF0F004012009642101FB0D
:1054F0001089A88910F4004F08D0322000EBC900B1
:10550000B0FBF1F000F00700044308E0322000EBAC
:1055100009106421B0FBF1F000F00F0004432C816E
:1055200006B0BDE8F08700000038014001468888D9
:10553000C0F308007047C1F30802828070477047CB
:10554000002000E0401C0A28FCDB704700BF7047C9
:105550002DE9F041044600252A212046FAF7DBFE1A
:1055600028B116A12046FAF7E0FEC5B202E00020FD
:10557000BDE8F081A81C205C412803DBA81C205C4E
:10558000373802E0A81C205C3038691C615C412976
:1055900003DB691C615C373902E0691C615C3039EE
:1055A00040EA0110C7B2691E601C00F009F8064607
:1055B000B74201D00020DBE70120D9E72A00000034
:1055C00030B502460B46002002E012F8014B604065
:1055D0001C00A3F10103F8D130BD000070B50446F2
:1055E0000D46E0790C2190FBF1F201FB1200E97904
:1055F00088427BD1A079A97988427BD17D48007807
:10560000022802D0042874D147E0687928BB607969
:105610001E2806DB022077490870FBF71DFD0020DD
:1056200070BD6079352806DB022072490870FBF7EF
:1056300013FD0020F4E780216F48FBF7E6FF4FF4ED
:1056400000716D48FBF7E1FF00206C4908706C4960
:105650000870012067490870E2E768791E281BD1AD
:105660006079352806DB022062490870FBF7F4FCFC
:105670000020D5E780216048FBF7C7FF4FF4007199
:105680005D48FBF7C2FF00205C4908705C49087068
:10569000012058490870C3E72BE068791E2827D1FC
:1056A00060791E2806DA042052490870FBF7ECFBEB
:1056B0000020B5E76079352806DD02204D490870E5
:1056C000FBF7CAFC0020ABE780214B48FBF79DFFAE
:1056D0004FF400714848FBF798FF002047490870D5
:1056E0004749087001204349087099E718E001E034
:1056F00000BF7DE0A079A979884206DD02203D49FE
:105700000870FBF7A9FC00208AE7A079A9798842F4
:105710006EDA042037490870FBF7B6FB00207FE7FC
:10572000E0790C2190FBF1F201FB1200E97988424B
:1057300010DDE0790C2190FBF1F201FB1200E97918
:10574000401A062806DC02202A490870FBF784FC70
:10575000002065E7E0790C2190FBF1F201FB1200DB
:10576000E979884210DDE0790C2190FBF1F201FB30
:105770001200E979401A062806DD04201D49087048
:10578000FBF782FB00204BE7E0790C2190FBF1F264
:1057900001FB1200E979884210DAE0790C2190FBD4
:1057A000F1F201FB1200E979081A062806DA042052
:1057B00010490870FBF768FB002031E7E0790C2105
:1057C00090FBF1F201FB1200E979884210DAE079EE
:1057D0000C2190FBF1F201FB1200E979081A06286E
:1057E00006DB022003490870FBF736FC002017E7B0
:1057F00000BF15E72D040020000C0140CB01002064
:10580000CC01002000B58BB00D48008805900C48F5
:10581000807804900A48C078039009480079029083
:10582000074840790190064880790090684600F06A
:1058300091FD0449084400F5E1400BB000BD0000B3
:10584000982B0020807EAA8300B58DB007230BAA79
:105850000021D02000F088FC9DF82C0000F00F0003
:105860009DF82C10091101EB810100EB4100009023
:105870009DF82D0000F00F009DF82D10091101EB8F
:10588000810100EB410001909DF82E0000F00F0017
:105890009DF82E10091101EB810100EB41000290EF
:1058A0009DF82F0000F00F009DF82F10091101EB5B
:1058B000810100EB410006909DF8300000F00F00E0
:1058C0009DF83010091101EB810100EB41000390BC
:1058D0009DF8310000F00F009DF83110091101EB27
:1058E000810100EB410004909DF8320000F00F00B0
:1058F0009DF83210091101EB810100EB410000F528
:10590000FA600590684600F025FD024908440DB094
:1059100000BD0000807EAA8310B58EB004464020F2
:105920000B904349601A694600F0B4FF0A210098C1
:1059300090FBF1F201FB12000A22009991FBF2F1B7
:1059400040EA0110C0B28DF830000A21019890FBA6
:10595000F1F201FB12000A22019991FBF2F140EAF7
:105960000110C0B28DF831000A21029890FBF1F2CB
:1059700001FB12000A22029991FBF2F140EA0110A8
:10598000C0B28DF832000A21069890FBF1F201FBBB
:1059900012000A22069991FBF2F140EA0110C0B20E
:1059A0008DF833000A21039890FBF1F201FB1200FD
:1059B0000A22039991FBF2F140EA0110C0B28DF87E
:1059C00034000A21049890FBF1F201FB12000A2234
:1059D000049991FBF2F140EA0110C0B28DF8350054
:1059E0006421059890FBF1F201FB12000A2190FB63
:1059F000F1F201FB12006422059991FBF2F302FB24
:105A000013110A2291FBF2F140EA0110C0B28DF8A5
:105A1000360001230BAA0E21D02000F0DFFB072364
:105A20000CAA0021D02000F0D9FB0EB010BD000060
:105A3000807EAA8310B58AB00020009001908A4829
:105A40008A490860012309AAFF21AE2000F08CFBDF
:105A50009DF82400FF287DD10020854981F87D0034
:105A60000021834880F87E1080F87F1080F8801035
:105A700080F881105A2180F8821080F8831080F815
:105A80008410082300F17D020021AE2000F0A6FB67
:105A90006420FBF7C7F8774800788DF82000764837
:105AA00000788DF82100022308AA6821AE2000F0BA
:105AB00095FB6420FBF7B6F8704800788DF820005D
:105AC0006F4800788DF82100022308AA3821AE2003
:105AD00000F084FB002405E06A48005D02A9085537
